{
  "contractName": "Adoption",
  "abi": [
    {
      "constant": true,
      "inputs": [
        {
          "name": "",
          "type": "uint256"
        }
      ],
      "name": "adopters",
      "outputs": [
        {
          "name": "",
          "type": "address"
        }
      ],
      "payable": false,
      "stateMutability": "view",
      "type": "function"
    },
    {
      "constant": false,
      "inputs": [
        {
          "name": "petId",
          "type": "uint8"
        }
      ],
      "name": "adopt",
      "outputs": [
        {
          "name": "",
          "type": "uint8"
        }
      ],
      "payable": false,
      "stateMutability": "nonpayable",
      "type": "function"
    },
    {
      "constant": true,
      "inputs": [],
      "name": "getAdopters",
      "outputs": [
        {
          "name": "",
          "type": "address[16]"
        }
      ],
      "payable": false,
      "stateMutability": "view",
      "type": "function"
    }
  ],
  "bytecode": "0x608060405234801561001057600080fd5b506102ea806100206000396000f300608060405260043610610057576000357c0100000000000000000000000000000000000000000000000000000000900463ffffffff16806339ac79791461005c5780633de4eb17146100a657806343ae80d3146100f9575b600080fd5b34801561006857600080fd5b5061008a600480360381019080803560ff169060200190929190505050610166565b604051808260ff1660ff16815260200191505060405180910390f35b3480156100b257600080fd5b506100bb6101e4565b6040518082601060200280838360005b838110156100e65780820151818401526020810190506100cb565b5050505090500191505060405180910390f35b34801561010557600080fd5b5061012460048036038101908080359060200190929190505050610265565b604051808273ffffffffffffffffffffffffffffffffffffffff1673ffffffffffffffffffffffffffffffffffffffff16815260200191505060405180910390f35b6000808260ff161015801561017f5750600f8260ff1611155b151561018a57600080fd5b3360008360ff1660108110151561019d57fe5b0160006101000a81548173ffffffffffffffffffffffffffffffffffffffff021916908373ffffffffffffffffffffffffffffffffffffffff160217905550819050919050565b6101ec61029a565b600060108060200260405190810160405280929190826010801561025b576020028201915b8160009054906101000a900473ffffffffffffffffffffffffffffffffffffffff1673ffffffffffffffffffffffffffffffffffffffff1681526020019060010190808311610211575b5050505050905090565b60008160108110151561027457fe5b016000915054906101000a900473ffffffffffffffffffffffffffffffffffffffff1681565b610200604051908101604052806010906020820280388339808201915050905050905600a165627a7a72305820af91eb86c253d21fde1b3ef2d3e058de056f58e9c2c74465e3724be2954fbf5e0029",
  "source": "pragma solidity ^0.4.17;\r\n\r\ncontract Adoption {\r\n\r\n  address[16] public adopters;\r\n\r\n  function adopt(uint8 petId) public returns (uint8) {\r\n    require(petId >= 0 && petId <= 15);\r\n    adopters[petId] = msg.sender;\r\n    return petId;\r\n  }\r\n\r\n  function getAdopters() public view returns (address[16]) {\r\n    return adopters;\r\n  }\r\n}\r\n",
  "sourcePath": "C:\\orders-master\\contracts\\Order.sol",
  "compiler": {
    "name": "solc",
    "version": "0.4.24+commit.e67f0147.Emscripten.clang"
  },
  "schemaVersion": "2.0.1",
  "updatedAt": "2018-12-09T19:40:04.977Z"
}